:100EC2000A0A0D20456E746572207468652061649B
:100ED20064726573733A20000D0A0A2053696E67C3
:100EE2006C652D5374657020657865637574696FE0
:100EF2006E20737461727465643A20507265737304
:100F02002027452720746F2065786974210D0A0017
:100F12000D0A202D2D2D2D2D2D2D2D2D2D2D2D2D4F
:100F22002D2D2D2D2D2D2D2D2D2D2D2D2D2D2D2DEF
:100F32002D2D2D2D2D2D2D2D2D2D2D2D2D2D2D2DDF
:100F42002D2D0D0A0050332E332028494E543129BD
:100F5200206973206E6F7420636F6E6E65637465B3
:100F62006420746F206C6F7721000A0D2041434387
:100F72002042205053572044505452205230205285
:100F820031205232205233205234205235205236F0
:100F92002052372053502050430A0D200025303470
:100FA20058200020253034582000253032582000A7
:100FB200202530345800202D2D2D2D2D2D2D2D2D79
:100FC2002D2D2D2D2D2D2D2D2D2D2D2D2D2D2D2D4F
:100FD2002D2D2D2D2D2D2D2D2D2D2D2D2D2D2D2D3F
:100FE2002D2D2D2D2D2D0D0A000D0A0A203D3D3DE2
:100FF2003D3D3D3D3D3D3D3D3D3D3D3D3D3D3D3D1F
:101002003D3D3D3D3D3D3D3D3D3D3D3D3D3D3D3D0E
:101012003D0D0A0A002020202020202020204154BB
:10102200383943353152433220446562756767650A
:1010320072204D6F6E69746F720D0A0A00203D3D79
:101042003D3D3D3D3D3D3D3D3D3D3D3D3D3D3D3DCE
:101052003D3D3D3D3D3D3D3D3D3D3D3D3D3D3D3DBE
:101062003D3D0D0A0A0020417661696C61626C6542
:1010720020436F6D6D616E64733A0D0A0A00204D54
:10108200202D204D656D6F727920456469746F72F1
:101092000D0A0A002053202D2053696E676C6520CB
:1010A2005374657020457865637574696F6E0D0AB7
:1010B2000A00204A202D204A756D7020746F205539
:1010C20073657220636F64650D0A0A002048202D43
:1010D20020446973706C6179205468697320486593
:1010E2006C70204D656E750D0A0A000D0A20456E62
:1010F2007465722074686520436F6D6D616E643A29
:1011020020001B5B324A1B5B48000D0A20496E76A9
:10111200616C696420436F6D6D616E6420210D0AFC
:0111220000CC
:0414960002730000DD
:0E146C00438920758DFD759850D28ED299223D
:05147A002570F8E6FFFB
:08147F008F993099FDC29922FA
:081487003098FDC298AF9922D4
:10112300752C00752D017BFF7A0E79C2121404E42D
:10113300F56FF570121487AE07BE081D7F081214F1
:101143007F7F2012147F7F0812147F74FE2570F5B1
:101153007074FF356FF56F8011AF7074442FF8A66C
:101163000674442FF8E6FF12147F0570E5707002D1
:10117300056FC39404E56F6480948040B7E4F54839
:10118300F56FF57074442570F8E6FFC39430400B97
:10119300EFD394395005EF24D08022E6FFC3944166
:1011A300400BEFD394465005EF24C98010E6FFC3EC
:1011B30094614012EFD39466500CEF24A9F52BE40D
:1011C30034FFF52A8005E4F52AF52BE574C4F854B9
:1011D3000FC868FFE573C454F048452AF573E52B3F
:1011E3004FF5740570E5707002056F6404456F7008
:0511F30093AE73AF7420
:0111F80022D4
:1013C600E5B020E32F1211238E268F27753F008567
:1013D60026408527417BFF7A0E79DA1214047BFFBB
:1013E6007A0F7912121404C28AD2AAD2AFAA40A9DD
:0E13F6004102123F7BFF7A0F79471214042246
:03001300020800E0
:10080000C0E0C0F0C083C082C0D075D000C000C0BE
:1008100001C002C003C004C005C006C007756F0058
:10082000757000756F007570000570E570700205D9
:100830006F6464456F70F20570E5707002056FC3F8
:100840009464E56F6480948040D9D2998581237542
:100850006100756200852363756F00757007AB6179
:10086000AA62A9631211F9FF74672570F8A60774CC
:10087000FF2563F56374FF3562F562E570157070EE
:1008800002156FE570B4FFD6E56FB4FFD1AB61AA76
:1008900062A9631211F9F55674FF2563F56374FFBD
:1008A0003562F562FAA9631211F9754200F54374D5
:1008B000FF2563F56374FF3562F562FAA9631211CF
:1008C000F9753D00F53E74FF2563F56374FF3562ED
:1008D000F562E53E4542F53BE543F53CAA62A96376
:1008E0001211F9F56474FF2563F56374FF3562F541
:1008F00062FAA9631211F9F53874FF2563F5637480
:10090000FF3562F562FAA9631211F9F54B74FF2500
:1009100063F56374FF3562F562FAA9631211F9F5A4
:100920002274FF2563F56374FF3562F562E52D459A
:100930002C600E85264985274A752C00752D008070
:100940000685244985254AE54BF524E522F52585CC
:100950006323E52945287003020B397BFF7A0F7961
:100960006C121404750BFF750C0F750D9F85380EF6
:100970007B007A00792E120BC2756F0075700074BF
:100980002E12147A0570E5707002056FC39402E5AB
:100990006F6480948040E87F2012147F750BFF7590
:1009A0000C0F750D9F85640E7B007A007957120B32
:1009B000C2756F00757000745712147A0570E57077
:1009C0007002056FC39402E56F6480948040E87FF5
:1009D0002012147F750BFF750C0F750D9F85560E39
:1009E0007B007A00794C120BC2756F00757002742F
:1009F0004C12147A0570E5707002056FC39404E51B
:100A00006F6480948040E87F2012147F750BFF751F
:100A10000C0F750DA5853B0E853C0F7B007A007988
:100A200076120BC2756F0075700074762570F8E64B
:100A3000FF600D12147F0570E57070EE056F80EA9F
:100A4000756F00757000750BFF750C0F750DAC742C
:100A5000672570F8E6F50E7B007A007976120BC2F6
:100A600075710075720074762572F8E6FF12147FB6
:100A70000572E57270020571C39402E57164809499
:100A80008040E37F2012147F0570E5707002056FCF
:100A9000C39408E56F6480948040AB750BFF750CC0
:100AA0000F750DAC85230E7B007A007976120BC290
:100AB000756F00757000747612147A0570E57070A9
:100AC00002056FC39402E56F6480948040E8750B63
:100AD000FF750C0F750DB285490E854A0F7B007AA4
:100AE000007976120BC2756F0075700074762570F0
:100AF000F8E6FF600D12147F0570E57070EE056F6B
:100B000080EA1214878F3AE53AB445197F0A121425
:100B10007F7F0D12147FC2AAC2AF7BFF7A0F79B814
:100B20001214048024E53AB40DD87F0A12147F12FF
:100B3000147F7F0D12147F8010E525B5270BE52467
:100B4000B52606752800752901D299D007D006D0A0
:100B500005D004D003D002D001D000D0D0D082D0B4
:060B600083D0F0D0E0326A
:101404008B1C8A1D891EE4F56FF570AB1CAA1DA9FF
:101414001E857082856F83121212FF600D12147F75
:0B1424000570E57070E5056F80E122A7
:101375007BFF7A0F79EB1214047BFF7A1079171231
:1013850014047BFF7A10793F1214047BFF7A1079DD
:10139500681214047BFF7A1079801214047BFF7A9B
:1013A5001079961214047BFF7A1079B41214047B19
:1013B500FF7A1079CE1214047BFF7A10793F02145C
:0113C5000423
:101456001211238E268F27AA26A9277B008B3F8A67
:0614660040894102123F23
:07148F007A20790002123FF0
:1013190012146C1213757BFF7A1079ED12140412F2
:1013290014878F3912147F7BFF7A11790412140400
:10133900E53924B860DD24FE602224F7601924EB26
:1013490060D124FE601624FD600824FA6009242671
:10135900700F12148F80BC1213C680B712145680F6
:0C136900B27BFF7A11790C12140480A7EB
:0300000002128D5C
:0C128D00787FE4F6D8FD75817F0212D452
:1011F900BB010689828A83E0225002E722BBFE02F4
:09120900E32289828A83E4932226
:10121200BB010CE58229F582E5833AF583E0225091
:1012220006E92582F8E622BBFE06E92582F8E222DB
:0D123200E58229F582E5833AF583E49322F5
:06123F008A838982E4733A
:100B6600E517240BF8E60517227808300702780BFC
:100B7600E475F0011212570211F92000EB7F2ED214
:100B8600008018EF540F2490D43440D4FF30040B67
:100B9600EF24BFB41A0050032461FFE51860021564
:100BA60018051BE51B7002051A30070D7808E47559
:100BB600F001121257EF02124502142F7403D207E6
:100BC6008003E4C207F5178B088A09890AE4F51839
:100BD600F51AF51BE51860077F20120BA180F57545
:100BE60019FFC201C200C202C203C205C206C20880
:100BF600120B6FFF700D3007057F00120BB2AF1B93
:100C0600AE1A22B4255FC2D5C204120B6FFF24D0E0
:100C1600B40A00501A75F00A781830D50508B6FFE0
:100C26000106C6A426F620D5047002D20380D92474
:100C3600CFB41A00EF5004C2E5D204020DB2D201BD
:100C460080C6D20080C0D20280BCD2D580BAD2057E
:100C560080B47F20120BA12002077401B518004052
:100C6600F1120B66FF120BA1020BDAD208D2068034
:100C760095120B66FB120B66FA120B66F94A4B705D
:100C86000679837A0E7BFF20022EE518602A7E0005
:100C96008E8275830012121260060EEE651970F0D0
:100CA600C2D5EBC0E0EAC0E0E9C0E0EE120DF9D033
:100CB600E0F9D0E0FAD0E0FB1211F9FF60AAEBC030
:100CC600E0EAC0E0E9C0E0120BA1D0E02401F9D0CF
:100CD600E03400FAD0E0FBE5190460DCD519D980D0
:100CE600877BFF7A0D79F5D202809C791080027994
:100CF60008C206C2088008D2D5790A8004790AC2D9
:100D0600D5E519047002F519E4FAFDFEFF120B662B
:100D1600FC7B08200113120B66FD7B1030000A12C3
:100D26000B66FE120B66FF7B20EC3382D592D55004
:100D360013C3E43000069FFFE49EFEE42001039DFA
:100D4600FDE49CFCE4CBF8C201EC700CCFCECDCC1C
:100D5600E824F8F870F38017C3EF33FFEE33FEEDA7
:100D660033FDEC33FCEB33FB994002FB0FD8E9EB88
:100D7600300105F8D0E0C448B201C0E00AEC4D4E9F
:100D86004F78207B0070C2EAB5190040BCC0E01263
:100D96000DFBD0F0D0E0200104C4C0E0C4B201C015
:100DA600F0120B8AD0F0D5F0EB020BDA1212670CB8
:100DB60077530CF1580C484C0C44420CF54F0CFD83
:0F0DC600440CFD490C5D430D03550CE7460CE74B
:100DD500450CE7470EA3500C4C2D0C502E0C732BD5
:100DE5000C54230C71200E8C2A0C0C4800000C6B43
:100DF5003F3F3F00790AA2D5200314300509B910F9
:100E0500020404B9080104A2D520060250010420F9
:100E150002689202B518005034C0E07F20300319F3
:100E25007F30A20272067205500F120E52C202C224
:100E350006C205C2087F30800F300503E9C0E01205
:100E45000BA1300503D0E0F9D0E0B518CC3005177B
:100E55007F30B9100C120BA17F583004077F7880C2
:100E650003B90803120BA13002057F2D020BA17FE8
:100E7500202008F87F2B2006F322920280CF286ECF
:100E8500756C6C2900D201120B663001F8C201782D
:100E95001830D50108F6020C0C2D50434958120B99
:100EA500662403B405004001E4900E9E93120B9254
:0D0EB500743A120B92D203751804020CF16E
:10129900021319E493A3F8E493A34003F68001F23F
:1012A90008DFF48029E493A3F85407240CC8C33356
:1012B900C4540F4420C8834004F456800146F6DF25
:1012C900E4800B0102040810204080901496E47E0B
:1012D900019360BCA3FF543F30E509541FFEE4931A
:1012E900A360010ECF54C025E060A840B8E493A3E1
:1012F900FAE493A3F8E493A3C8C582C8CAC583CA0C
:10130900F0A3C8C582C8CAC583CADFE9DEE780BEC3
:01149A000051
:10124500BB010689828A83F0225002F722BBFE0188
:02125500F32282
:10125700FAE6FB0808E6F925F0F618E6CA3AF62298
:10126700D083D082F8E4937012740193700DA3A316
:1012770093F8740193F5828883E47374029368602A
:06128700EFA3A3A380DF2A
:10142F00EFB40A07740D12143A740A309811A89980
:10143F00B8130CC2983098FDA899C298B811F6301D
:07144F0099FDC299F59922F5
:00000001FF
