:0340000002400675
:03405F0002400319
:0340030002409DDB
:10406200438920758DFD759850D28ED29922AF83E7
:10407200E582900000F0EFA3F0900000E0FEA3E0E4
:10408200FF8E9910990280FB8E828F8322109802F4
:1040920080FBAE997F008E828F832212406275E090
:1040A2001175F0227497C0E0744BC0E07480C0E0D8
:1040B2001241351581158115817E007F00C3EE9472
:1040C20064EF6480948050D67C007D00C3EC9464DD
:1040D200ED6480948050070CBC00F10D80EE0EBEA2
:0540E20000DB0F80D897
:0F4B97000D0A4865792065766572796F6E650045
:06403500E478FFF6D8FD5F
:104013007900E94400601B7A00904BB1783B75A0AE
:1040230000E493F2A308B8000205A0D9F4DAF2750C
:02403300A0FFEC
:10403B007800E84400600A790075A000E4F309D821
:10404B00FC783BE84400600C7901900000E4F0A39D
:04405B00D8FCD9FABA
:1040E700C0128581127E008E83124070D01222AFDB
:1040F700F0AE83E582900003F0EEA3F0EFA3F0901B
:104107000003E0FDA3E0FEA3E0FF900002E0FC90C7
:104117000017E4F0A3F0A3F090001AEDF0EEA3F07F
:10412700EFA3F090001DECF09040E702423BC01275
:10413700E581F51224FBFF900017E4F0A3F0A3F04C
:10414700E51224FBF890001AE6F008E6A3F008E66B
:10415700A3F090001DEFF09040E712423BD01222EF
:10416700E582900013F0E0FF900009E0C0E0A3E0D3
:10417700C0E0A3E0C0E0124182800D900007E0C0DC
:10418700E0A3E0C0E08F82221581158115819000A0
:1041970011E02401F0A3E03400F022E5829000143E
:1041A700F0E02430FF24C6500D74072FFF9000065F
:1041B700E060034307208F82024167E58290001584
:1041C700F0E0FFC4540FF582C0071241A2D0075395
:1041D700070F8F820241A2E582900016F090000C33
:1041E700E0FCA3E0FDA3E0FEA3E0FF900010E0FBEE
:1041F700900016E0FA79208B00E828F513EF235496
:10420700014513FBEC2CFCED33FDEE33FEEF33FFE2
:10421700C3EB9A4007EBC39AFB43040119E970D734
:1042270090000CECF0EDA3F0EEA3F0EFA3F09000FC
:1042370010EBF022AF83E58290001EF0EFA3F09021
:10424700001EE0FEA3E0FF900007EEF0EFA3F09062
:104257000017E0FDA3E0FEA3E0FF900009EDF0EEFC
:10426700A3F0EFA3F0900011E4F0A3F090001AE0A0
:10427700FDA3E0FEA3E0FF8D828E838FF0124B77C4
:10428700FC90001A74012DF0E43EA3F0EFA3F0ECCC
:104297007003024B33BC25028003024B2B90002096
:1042A700E4F0900021F0900022F0900023F09000BD
:1042B70024F0900025F0900026F0900027F0900061
:1042C70029F090002AF0A3F090002C14F0A3F090AE
:1042D700001AE0FDA3E0FEA3E0FF8D828E838FF03E
:1042E700124B77FBA3AD82AE8390001AEDF0EEA3DD
:1042F700F0EFA3F0900030EBF0BB25088B82124162
:1043070067024273BB300050030243D4EB24C6500C
:10431700030243D490002CE0F508A3E0F50974FFED
:10432700B50863B50960C005C006C00790002AE05C
:10433700FAA3E0FF900039EAF0EFA3F090000AC07B
:1043470005C003124B57AE82AF83D003D0058B0550
:104357007A00ED2EFEEA3FFFEE24D0FEEF34FFFF9A
:1043670090002AEEF0EFA3F0D007D006D00590001A
:104377002AE0F5F0A3E045F060030242E190002156
:104387007401F00242E1C005C006C007900039E59C
:1043970008F0E509A3F090000AC006C005C00312A3
:1043A7004B57AA82AF83D003D005D0067E00EB2AF5
:1043B700FAEE3FFFEA24D0FAEF34FFFF90002CEA31
:1043C700F0EFA3F0D007D006D0050242E19000300D
:1043D700E0FBBB2E2FC005C006C00790002CE0FAFB
:1043E700A3E0FFBAFF05BFFF028009D007D006D0C0
:1043F700050242E1D007D006D00590002CE4F0A3D7
:10440700F00242E1BB61004014EB2485400F9000AD
:104417003074DF5BF09000067401F08005900006B1
:10442700E4F0900030E0FBBB20028075BB2B0280DC
:1044370067BB2D028059BB4202806FBB4302807C61
:10444700BB44030246CBBB46030246F1BB4803020B
:1044570042E1BB49030246CBBB4A030242E1BB4CE4
:10446700028050BB4F030246D9BB5003024639BBFB
:1044770053028077BB54030242E1BB55030246E176
:10448700BB58030246E9BB5A030242E10246F990D0
:1044970000207401F00242E19000227401F0024210
:1044A700E19000237401F00242E19000257401F0CD
:1044B7000242E19000267401F00242E1900025E0FB
:1044C700600E90001DE014F9F0900030E7F0800FC7
:1044D70090001DE024FEFFF08F01900030E7F09080
:1044E7000030E0F58212416702470890001DE02482
:1044F700FDFFF08F018705098706098707191990BE
:10450700000CEDF0EEA3F0EFA3F08D828E838FF019
:10451700124B3F85820885830990002CE0FAA3E0BF
:10452700FDBAFF0DBDFF0A90002CE508F0E509A3D1
:10453700F0900020E0704B90002AE0FAA3E0FDC362
:10454700E5089AE5099D503A90002AEAC39508F0D4
:10455700ED9509A3F090002AE0FAA3E0FD8A068D05
:10456700071ABAFF011DEE4F6010758220C005C003
:1045770002124167D002D00580E390002AEAF0EDED
:10458700A3F090002CE0F50BA3E0F50C90000CE0F5
:10459700FAA3E0FDA3E0FF8A828D838FF0124B77A9
:1045A700F50A603CC3E4950B7480850CF063F080DA
:1045B70095F0502C150B74FFB50B02150C850A826C
:1045C70012416790000CE0FAA3E0FDA3E0FF0ABAEE
:1045D70000010D90000CEAF0EDA3F0EFA3F080AC22
:1045E700900020E0700302470890002AE0FEA3E055
:1045F700FFC3E5089EE5099F400302470890002A8C
:10460700EEC39508F0EF9509A3F090002AE0FEA30A
:10461700E0FF8E028F051EBEFF011FEA4D700302E9
:104627004700758220C007C006124167D006D00731
:1046370080E090001DE024FDFDF08D01870D0987C6
:104647000E09870F191990000CE50DF0E50EA3F080
:10465700E50FA3F090000EE0FDBD8000400890003C
:10466700307443F08020BD600040089000307450E3
:10467700F08013BD400040089000307449F0800678
:104687009000307458F0900030E0FDF582C00512BC
:10469700416775823A1241677582301241677582A8
:1046A70078124167D005BD4902800EBD50028009CE
:1046B70090000DE0F5821241C290000CE0F58212E5
:1046C70041C2803D9000247401F0900029740AF0E3
:1046D700802F9000297408F08027900029740AF031
:1046E700801F9000297410F080179000277401F044
:1046F700800F8B82124167800890002AEEF0EFA3AB
:10470700F0900027E0607190001DE024FCFFF08F1F
:10471700018703098705098706098707191919906A
:10472700000CEBF0EDA3F0EEA3F0EFA3F090000C7C
:1047370074A6F0744BA3F07480A3F090000CE0F51E
:104747000DA3E0F50EA3E0F50F7401250DFAE4358E
:104757000EFBAF0F90000CEAF0EBA3F0EFA3F08590
:104767000D82850E83850FF0124B77FF700302428F
:10477700738F8212416780C3900029E07003024261
:1047870073900025E0604790001DE014F9F087075B
:104797007E007D007B0090000CEFF0EEA3F0EDA310
:1047A700F0EBA3F0900024E0600302484B90000C6C
:1047B700E0FBA3E0A3E0A3E07D007E007F00900084
:1047C7000CEBF0EDA3F0EEA3F0EFA3F080769000F2
:1047D70026E0602890001DE024FCFFF08F0187038E
:1047E70009870509870609870719191990000CEB2E
:1047F700F0EDA3F0EEA3F0EFA3F0804890001DE0EA
:1048070024FEFFF08F01870609870719EF3395E02C
:10481700FDFB90000CEEF0EFA3F0EDA3F0EBA3F09F
:10482700900024E0701E90000CE0FBA3E0FDA3E0E5
:10483700A3E07E007F0090000CEBF0EDA3F0EEA369
:10484700F0EFA3F0900024E0603D90000CE0A3E0BF
:10485700A3E0A3E030E72B90000CE0FBA3E0FDA36F
:10486700E0FEA3E0FFC3E49BFBE49DFDE49EFEE4C2
:104877009FFF90000CEBF0EDA3F0EEA3F0EFA3F099
:104887008005900024E4F09000287401F09000293E
:10489700E0F50B751036751100E4F508F509900081
:1048A70010E4F0850B821241DE900028E07033900F
:1048B7000010E0C454F0F50D900010E0C4540F450B
:1048C7000DF50D851082851183E0FFE50D42078503
:1048D7001082851183EFF0151074FFB510021511C2
:1048E700800B900010E0851082851183F00508E4A5
:1048F700B508020509900028E0B40100E433F09000
:10490700000CE0FAA3E0FBA3E0FEA3E0FFEA4B4EB6
:104917004F708B900037E510F0E511A3F090002E53
:10492700E508F0E509A3F090002AE0F5F0A3E045DB
:10493700F0700990002A7401F0E4A3F0900021E0E0
:10494700FFE07047900020E070418508108509114D
:1049570090002AE0FAA3E0FBC007AF100F8F067F95
:1049670000C3EE9AEF9BD0075019758220C007C08D
:1049770003C002124167D002D003D0071ABAFF0161
:104987001B80D590002AEAF0EBA3F0900024E060AA
:104997002075822DC007124167D00790002AE024B6
:1049A700FFFDA3E034FFFE90002AEDF0EEA3F080B8
:1049B7005690002EE0F5F0A3E045F0604A90002203
:1049C700E0602075822BC007124167D00790002A4C
:1049D700E024FFFDA3E034FFFE90002AEDF0EEA3F4
:1049E700F08024900023E0601E758220C0071241EA
:1049F70067D00790002AE024FFFDA3E034FFFE9074
:104A0700002AEDF0EEA3F0900020E0704490002E15
:104A1700E0F510A3E0F51190002AE0FAA3E0FBC04F
:104A2700078A068B071ABAFF011BC3E5109EE5111B
:104A37009FD007504FEF60047E3080027E208E8229
:104A4700C007C003C002124167D002D003D007805D
:104A5700CE90002AE0FEA3E0FF90002EE0F510A321
:104A6700E0F511C3E5109EE5119F500F90002AEE67
:104A7700C39510F0EF9511A3F0801190002AE4F090
:104A8700A3F0800890002AEAF0EBA3F0900037E04B
:104A9700FEA3E0FF90002EE0F510A3E0F511AA10A9
:104AA700AD11151074FFB510021511EA4D60449051
:104AB7000028E0B40100E433F0900028E070130E02
:104AC700BE00010F8E828F83E0C4540F900010F058
:104AD700800E8E828F83E0FD53050F900010EDF05E
:104AE700900010E0F582C007C0061241A2D006D0A0
:104AF7000780AB900020E0700302427390002AE029
:104B0700FEA3E0FF8E038F051EBEFF011FEB4D7056
:104B170003024273758220C007C006124167D006A0
:104B2700D00780E08C82124167024273900011E047
:084B3700FEA3E08E82F583224B
:0B4BA6003C4E4F20464C4F41543E0057
:104B3F00AA82AB83124B776003A380F8C3E5829AF6
:104B4F00F582E5839BF58322AA83AB828BF09000DD
:104B5F0039E0A4F8A9F08AF0E0A429F98BF0A3E0DA
:084B6F00A429F58388822222AB
:0D400600758113124B93E5826003024003A5
:104B770020F71430F6148883A88220F507E6A88367
:104B870075830022E280F7E49322E02275820022F7
:00000001FF
